S02B0000416C6C5F4D65676152665F41746D656761323536726672325F384D687A5F4763632F4578652F417000
S2840000000C94A7260C9493F20C94BFF20C94EBF20C9417F30C9443F30C946FF30C949BF30C94C7F30C94F3F30C941FF40C94EE260C94EE260C94A4EE0C94EE260C94FAEE0C94EE260C94EE260C94EE260C94EE260C94EE260C94EE260C94EE260C94EE260C9451F50C945DF10C9400F10C942FF10C94EE260C94E2F40C94B9F40C94EE2612
S2840000800C94EE260C94EE260C94EE260C94EE260C94F7F10C949AF10C94C9F10C9452F40C94EE260C94EE260C9413E00C9476E20C94EE260C94EE260C94EE260C94EE260C94EE260C94EE260C94EE260C94EE260C94EE260C94EE260C94EE260C94EE260C94EE260C94EE260C94EE260C94EE260C94D2E20C94EE260C94EE260C94FAE2CD
S2840001000C94EE260C94EE260C94EE260C94EE260C94EE260C94EE260C94EE260C9422E30C94EE260C94EE260C94EE260C94EE260C94EE260000000000000000000000000000000000000000000000000000000000000000000000000000000000000000000000000000000000000000000000000000000000000000000000000000000065
S2840001800000000000000000000000000000000000000000000000000000000000000000000000000000000000000000000000000000000000000000000000000000000000000000000000000000000000000000000000000000000000000000000000000000000000000000000000000000000000000000000000000000000000000000FA
S284000200000000000000000000000000000000000000000000000000000000000000000000000000000000000000000000000000000000000000000000000000000000000000000000000000000000000000000000000000000000000000000000000000000000000000000000000000000000000000000000000000000000000000000079
S2840002800000000000000000000000000000000000000000000000000000000000000000000000000000000000000000000000000000000000000000000000000000000000000000000000000000000000000000000000000000000000000000000000000000000000000000000000000000000000000000000000000000000000000000F9
S284000300000000000000000000000000000000000000000000000000000000000000000000000000000000000000000000000000000000000000000000000000000000000000000000000000000000000000000000000000000000000000000000000000000000000000000000000000000000000000000000000000000000000000000078
S284004400A80F160019009B0D03001800D708BD0017004A1401001600FE14080015008B1401001400821402001300EE1401002600911401001E00811401000F00081501000E00F21401000D00FA1402000C004B1401000B00451402000A006814110009005E14010008005D14010007005C1401000600EF1401000500F814010004004014AB
S284004480040003007914080002003E1401000100221408000000844712002E00A84715002D00D24719002C00044804002A000C48110029004028DE28F128F4284F296C298A293B2855517250935193519351775081509351935189508E50B650BF509351C450CC50D6509351DF50E4509351ED5028513A5193512D5135515551555155515F
S2840045004C514C514C514C514C514C514C514C514C514C514C514C514C514C514C514C514C5100514C51935193519351935193519351935193519351935193519351935193514C51475155514C51FA503F51575155516E517C518351555155515551EF525C52365336533653625267520A5336536A526D527E5283523653865289528C525A
S2840045803653915294520A539952E352F8523653E652E9526052EC52EC520A530A530A530A530A530A530A530A530A530A530A530A530A530A530A530A530A53C9520A53365336533653365336533653365336533653365336533653365336530A53005303530A53C152FB5212531B5315531853365329532E5334533B543D5448543F548B
S2840046004154435445541A544B544D541A545054A554A854AC54AF54B354B754BA54BE54BE541A5958595859585921593E592F59365969592859455945594C59585960596459C459C759CA59CA59CC59D659D059D359E359CE59D959DB59DD59E059CC5BCF5BF05BD25BD65BF05BDA5BF05BE55BE85BEE5B575F04601360125F5A605A6014
S2840046800F601360186046602F605A605A604660455F4860609868987F98F198F19848985598F198F198F1989F98AE98CB98D798F198459873981198DE9CDE9C079C0F9C0F9C1C9C1C9C399C399C399C979C979C979C329DDE9CDDAA2FAB03AB07AB07AB07AB07AB07AB0BAB0BAB6ABE6DBE0EBF0EBF72BE0EBF7CBE65BF65BF65BF65BF67
S28400470065BF65BF65BF65BF65BF0EBF0EBF65BF65BE77BE0EBFEBC939CA39CA39CA39CA39CA28CA12CA30CA39CA22CA39CA2CCA34CA0FCCEACCC7CDF2CD31CE5DCFA6CF88D588D588D588D588D588D588D588D588D5DDCEEBCE88D588D512CFA9CD90D798D7AAD7B3D7B5D7B7D7B9D7BCD78FD807D907D9B5D8BED8CED8D7D8DAD8DDD8CA
S284004780E0D8E6D800000100020003000400050006000700080009000A000B000C000D000E000F001E00180000000100020003000400050006000700080009000A000B000C000D000E000F001E00130014001500160000000100020003000400050006000700080009000A000B000C000D000E000F001E0013001400150016001700180091
S28400480019002600130014001500160000000100020003000400050006000700080009000A000B000C000D000E000F001E0040070000D70800003108000094090000CB08000000000000BE090000280F0000800F0000D20C0000240D0000EE0C00005B0D00009E0D0000E20E000000000000000000009B0D0000A80F000000000000000045
S2840048800000000000000000000000000000000000000000000000000000000000000000000000000000000000000000000000000000BE0F0000E60F0000C5070000B64A0200BA4A0100BD4A0100BB4A0200C04A0100C14A0100C24A0100C34A0100C44A0100C54A0100C64A0200BE4A0200C84A0100C94A0100E24A0200D34A0100D44A11
S2840049000100D54A0100DE4A0400CA4A0100CB4A0400CF4A0100D04A0100DA4A0100DB4A0100DC4A0200000000000000000000000000000000000000000000000000000000000000000000000000000000000000000000000000D14A0100D24A0100E44A0100E54A0100E64A0100E74A010000000000D64A0400B84A0200221408002C146E
S28400498001003A1404003E14010040140400F6140100F7140100FE140800FA140200821402008B140100F214010008150100F81401004714010048140100491401004A140100451402004B1401004C140100F4140100F3140100FD130100FE130100791408005F14040054140400581404005C1401005D1401005E14010068141100EF1475
S284004A0001006314010064140400EC130100FF13020081140100441401000000000000000000ED13010000000000000000000000000000000000000000000000000000000000000000000000000000000000000000004D1405005214010053140100000000000000000000000000000000000000000000000000000000002E1401000000C0
S284004A800000000000000000000000000000000000000000000000000000000000000000000000000000000000003F140100341401002D14010085006C0001000007050007040205040204000308FF140000000108030303020A901A00000100000000000303141061620003001E000003F4008000000134120003030000020000000000FD
S284004B0003034C1D000010270000010001E803000004E80300001041746D656C2020202020202020202020FECAAAAAAAAAAA1A0002030100000000000000000000000000000005FF0000000000000000000000000000000000000000000000000000000000000000000000000000000000000000000000000000000000000000000000000D
S284004B800000000000000000000000000000000000000000000000000000000000000000000000000000000000000000000000000000000002010002020508080000FFFF341200000000000000000202011C427B47000000000000000000000000029A7E78790107E29924740101E29924740101597E8B910101DE7DEAA00101DE7DB9A05E
S284004C000107937D147401013B7D0687010100000000010700000000010100000000010300000E6C010400000E6C010500000000010600000000010D000000000101E2990000000100000000010E00000000010700000000010A00000000010000000000010100000000010100000000000000000178000900000178000C000001780000FF
S284004C8000000178009C7A6E80A19765AAA176D79DB17B577C277514835D893A7813A1387BA6758F74000000005974DC8200000000C369D36C596A2E6A526A0000CA69D869476AD169C96C8169C56BCC6B3B6CBD6B606A0000236D020102030302020101010101010101010202010101020102020202020201020202020202010303020210
S284004D00039CA8C89E7F97FB9F0000FEA67E90B5AB00000000E7B802BEBDC7CAC098D59CC687E487E487E487E4F9E5BEE3D7F575EE27E165E00AEDAAEFAEEC3BEBB6E988E4DAE506E719E5D8E504E717E500112480916A19823159F084B780FD04C08F7180936A1907C081E080936A1903C081E180936A1914BE8091600088618093600044
S284004D8010926000EBE6F9E18DEC01C0819390E7E030F907D9F3D0F311241FBEC0E0D0E7DEBFCDBF00E00CBF13E0A0E0B2E0E0EAF3EF01E00BBF02C007900D92A43AB107D9F729E1A4EAB3E001C01D92AA36B207E1F70E94E8320E94FE32FDCF0C9400007F937FB7F8949D9AA5988AEF4DD08AEF4BD09D9886E448D081E0959980E08F9366
S284004E0080EF42D08F917FBF7F9108957F937FB7F8949D9AA59886E037D09D988AE034D0889495990894881F8F9384E62DD08F917FBF7F9108959F937F9398E0E7DF879577959A959923D1F7872F7F919F9108957F937FB7F894A5989D9A8F9386E014D08F91879508F49D988F9384E60DD08F919D987FBF7F9108959F9398E0E9DF9A95CD
S284004E809923E1F79F91089500000000000000008A958823C9F708955F937F937FB7F894CF93DF93C0E0D0E07F935091B2007091B2007517E1F3739521965091B2005717D9F77F91CE01DF91CF917FBF7F915F91089582E08093BC032FB7F8948091020690910306906190930306809302062FBF089585E08093BC032FB7F89480910206FB
S284004F0090910306906190930306809302062FBF0895882329F08FE794E00C940DE4089588E08093BC030895882329F08CE894E00C940DE4089588E08093BC030895CF93DF93EC0180E00E94483386EA94E00E940DE46CA18EA19FA127D362E08CE193E023D3DF91CF910895FC01878581110EC063EB74E081E290E00E9417348091B30498
S284004F80811108C06DE08BEF92E003C065E189E093E00AD32FB7F8948091020690910306906190930306809302062FBF089580E00C945433089581E00C9454330895882381F083E08093BC032FB7F8948091020690910306906190930306809302062FBF089588E08093BC030895882381F086E08093BC032FB7F8948091020690910306ED
S284005000906190930306809302062FBF089588E08093BC030895FC018081811116C081E00E94483389E994E00E940DE488E08093BC032FB7F8948091020690910306906190930306809302062FBF08958F929F92AF92BF92EF920F931F93CF93DF938091BC0390E08830910508F0CBC1FC01E65AFD4D0C94F1F6E3E1F2E0A7EEB3E0B3C1A3
S28400508064D284EB97E29093BB038093BA0384EA93E00E94E4C6C1E0D0E0D093C103C093C003D093BF03C093BE0311E01093BD038091C203807F81608093C2038DEB93E090937B0480937A048FE997E290937D0480937C0487E794E00E940543D0936604C093650482E08093590410925B0410925A041093640487EE93E090936D048093FE
S2840051006C048AE590E090936B0480936A04109369048BE098E290937104809370040E94603384EF91E0A0E0B0E080939F049093A004A093A104B093A2041093A3042BED37E23093A5042093A4048093AC049093AD04A093AE04B093AF041093B00487ED97E29093B2048093B10485E590E0A0E0B0E08093920490939304A0939404B09359
S28400518095041093960489E697E290939804809397048DE190E0A0E0B0E08093850490938604A0938704B09388041093890489E797E290938B0480938A0420C180E092E00E941EE8019621F467E18FE193E0ECD184E997E29093100280930F0282E192E066C08FED97E27AC06091040770E0762F662780910507682B6C7F80E090E00E946C
S2840052002DF820E030E040E857E30E94DFF822E538EB4FE253E40E94DFF826E636E64BE352E40E9493F74B015C0120E030E0A9010E94F8F787FF02C08DE201C08BE280934A02C501B4010E9401F89B01AC0163E0E62E08E361E583E192E0DAD1C501B4010E94FCF7882777FD8095982F0E942FF89B01AC01C501B4010E9493F720E030E0DE
S2840052804AE754E40E94DFF80E9401F89B01AC010CE361E583E192E0BBD184E095C089E897E29093100280930F0281E192E0909309028093080281E090E0909307028093060280E092E00E9454E8019609F096C06CE087E393E01CC085EF97E29093100280930F0284E097E0909309028093080283E090E0909307028093060280E092E026
S2840053000E947CE8019609F079C06BE084E493E04BD174C080E092E00E943CE8019621F46CE080E593E040D16091040770E0762F662780910507682B6C7F80E090E00E942DF820E030E040E857E30E94DFF820E030E04AEF52E40E94DFF820E030E040EC50E40E9493F74B015C010E9401F89B01AC0193E0E92E06E461E583E192E048D105
S284005380C501B4010E94FCF7882777FD8095982F0E942FF89B01AC01C501B4010E9493F720E030E04AE754E40E94DFF80E9401F89B01AC010AE461E583E192E029D161E583E192E0F1D087E08093BC032FB7F8948091020690910306906190930306809302062FBF0EC082E0E436F80719F081918D93F9CF81E494E00E94963F88E08093FE
S284005400BC03DF91CF911F910F91EF90BF90AF909F908F9008950895089508950895CF92DF92FF920F931F93CF93DF93E42FF0E0F090B0052AEF30E02F1931092E173F0734F15091AF0520E030E0EC01C60FD11D0AEF10E02E173F07ACF4852F90E0BC016C547B4F6B01BE01620F731FDB015C91D6015C932F5F3F4F0196B8010E94A0F6A9
S284005480582FE8CF5093AF05F40EF092B005DF91CF911F910F91FF90DF90CF9008951F93CF93DF931092E3051092E4051091B005112309F446C08091AE05E1EBF5E01333E0F4212F30E0CAEFD0E0AF01415B5540421753075CF490E0DC01AC54BB4F4C9141930196BE010E94A0F6EFCF8093AE051093E3051092B00518C02AEF30E090E0BE
S284005500DC01AC54BB4F4C9141930196B9010E94A0F695E0E33EF90791F78093AE0582E38093E30512531093B00581E08093E4054091E30550E061EB75E083EE96E00E946FE7DF91CF911F91089588EC8093EE061092EF0689E190E09093F1068093F00686E08093F2061092F3061092F406109203071092F8061092F7061092FA0610923B
S284005580F9061092FC061092FB061092FE061092FD068FE49AE2909302078093010783EE96E00C9410E70895462F2091E405222319F060E034CF0895FC01A1EBB5E0633370F4862F90E09D01215B3540281739071CF421912D93F7CF4093E3050CC021912D9325E0A33EB207D1F722E32093E305425362E314DF81E08093E4054091E30511
S28400560050E061EB75E083EE96E00C946FE70895A0E0B0E0EEE0FBE20C9422F7F12CF701E00FF11DC62FD0E0CE17DF07ECF0C0E0D0E08C010E0F1F1F6AE0862E912CA12CB12C2197F701EC0FFD1F319669F06801CC0EDD1EB901CA01A50194010E94B3F6605DF6016083EDCFCDB7DEB7ECE00C943EF7A2E0B0E0EFE3FBE20C9424F76C0145
S2840056800091070710910807E12CF12C80910B0790910C07E816F906A8F45801B8016C5F7F4F42E050E0CE0101960E9499F90A5F1F4F29813A812C153D0539F08FEFE81AF80AE4CF80E090E001C0C5012296EAE00C9440F7ADE0B0E0E0E7FBE20C9426F77C016B0123E0969587952A95E1F7FC01E95FF84F228D30E0B70167707727062EE4
S28400570002C0369527950A94E2F78E010F5F1F4F20FF42C027E0E1E2F7E0D80101900D922A95E1F7A0E020E030E04A2F50E048175907D8F4F801E40FF51F4081542F569555754575540F452F4695469543735373450F4083E42FEF7042954F7050E04E0F511D240F351FAF5FE0CFE0E0D801A80FB91F4E2F50E04617570780F44C9150E0A8
S2840057800E2E02C0569547950A94E2F741705527240F351FEF5FEDCF2FEF3FEF1B870A8746E0429FC001439F900D112404969987888786E090E09D878C876CE17DE2CE01089672D18D819E81E816F90639F084E090EA90933B0780933A07E1D589819A81F601918380832D96E8E00C9442F7A6E0B0E0EDEFFBE20C9428F77C018B0180E04F
S28400580090E0FC0133E0F695E7953A95E1F7EE0DFF1D6081AC0147705527262F30E0042E02C0369527950A94E2F720FF0DC021E030E001C0220F4A95EAF720952623208318DF009731F431C0019683339105C9F62CC046E050E0BC01CE0101960E9499F989819A81F80193838283B8018D819E8131DFF801808191810596918380838B819E
S2840058809C819583848382819381892B39F480E090EA90933B0780933A0781D58D819E81F7019087878381E006C08FEF9FEFF7019087878380E02696E6E00C9444F7A8E0B0E0E5E6FCE20C9422F77C01A0900907B0900A07FC01868182FD09C000E010E0812C76E0972ECC24C394D12C0CC047E050E06FEF70E0C7010E94C9F96DC08824B1
S28400590083940F5F1F4F80910D0790910E070817190708F05BC0909EB001919E700D11246A0D7B1D46E050E0CE0101960E9499F92D813E81F90163E0F695E7956A95E1F7EE0DFF1D408127703327842F90E0022E02C0969587950A94E2F780FFD2CFC60102C0880F991F2A95E2F79C01209524232083812C882D90E02B813C818217930765
S28400598008F0BDCF880F991F69817A81680F791F42E050E0CE0107960E9499F98F819885FC0153E0F695E7955A95E1F7EE0DFF1D87709927960102C0220F331F8A95E2F7C9019081982B90838394D4CF882021F000E010E0812C97CF2896ECE00C943EF7CF93DF93EC018FEF9FEF98878F8387E0FB01DE0101900D928A95E1F7CE015FDF42
S284005A00E1E2F7E0919188818923899387E0E832F807C1F7DF91CF9108958091350790913607A7C20895109232078DE09DE2909334078093330708950895EAE1F7E0DC013D91CD012081232B2193B7E0E132FB07B1F78091370784608093370708950E9434EB882311F0DFD5FACF0895A2E0B0E0ECE3FDE20C942AF78B0189839A83EFDFD4
S284005A80B80189819A810E9457EA019631F08DE20C31180721F4E3DF02C081E001C080E02296E4E00C9446F7A2E0B0E0EAE5FDE20C942AF78B0189839A83D1DFB80189819A810E94E4E9019631F08DE20C31180721F4C5DF02C081E001C080E02296E4E00C9446F7A2E1B0E0E8E7FDE20C941FF780913707982F92609093370782FF0AC0B2
S284005B006AE177E085EE95E06BDF809137078B7F80933707CC24C394D12C7E013DE0E30EF11C55E0A52EB12C4E0182E1880E911CBE01695F7F4F85EE95E059DE882309F462C06090EC057090ED05F30163E0F695E7956A95E1F7E95FF84FC30187709927960102C0220F331F8A95E2F7C901809593898923838BFC82EB82BE82AD828F81C7
S284005B80988505979A8389836CE17DE2CE0101968BDF4B855C8569857A8580E05ED0582E8D8558123AC08889998968167906A9F52B853C858E859F852817390771F59C828B82DE82CD8200E010E02B853C850217130708F0ADCF2F813885200F311F3A8329836CE17DE2CE0101965EDFAB81BC81E985FA85E00FF11F9C91808198130DC05E
S284005C000F5F1F4FE2CF809137078D7F8093370760E070E08FE001D21CC05D86798A688A8B859C859F878E87FC82EB8285E090E09E838D838F81988505979A83898362E77DE2CE01079612DF6CE17DE2CE0101960DDF6296EFE00C943BF7FB01460F571FE417F50719F09191890FFACF08954F925F927F928F929F92AF92BF92CF92DF92F5
S284005C80EF92FF920F931F93CF93DF93CDB7DEB762970FB6F894DEBF0FBECDBF80E094E4909308078093070786E994E490930A078093090706E914E400501444C80166E070E00E948CF6892B39F080E290EA90933B0780933A0763D326E030E0C801B9010E948CF640910B0750910C07642B752B70930C0760930B0704EB14E4065914446D
S284005D00C801B9010E948CF6892B39F081E290EA90933B0780933A0742D3C80166E070E00E948CF680910D0790910E07682B792B70930E0760930D07009107071091080710920F0710921007109211071092120787E0E1E2F7E0DF011D928A95E9F7D12CEE24E394F12C80910B0790910C072D2D30E028173907C8F546E050E0B801CE0179
S284005D8001960E9499F92B813C812B5F3F4F80910F0790911007A0911107B0911207820F931FA11DB11D80930F0790931007A0931107B09312078D819E81FC0133E0F695E7953A95E1F7E95FF84F87709927970102C0220F331F8A95E2F7C901928D982B928F0A5F1F4FD394BECF26E0289F6001299FD00C112434E0C30ED11CE12CF12CD6
S284005E00CE010796988B8F8786E090E09A8B898BA12CB12C00E010E096E0792E22E2822E20EA922EF80183E0F695E7958A95E1F7E95FF84F828D90E098012770332702C0969587952A95E2F780FF41C07A9CC0017B9C900D112404969E878D876CE17DE2CE010D9621DE8B859C858017910749F48F819885A985BA858C159D05AE05BF05A0
S284005E8059F01C870B87CF82D886E986FA866CE17DE2CE010D96EADDC801EBDB2C01009729F490923B0780923A0779D246E050E0B201CE0101960E9499F98B819C810596C80ED91EE11CF11C8FEFA81AB80A0F5F1F4F0333110509F0A5CFA5DD62960FB6F894DEBF0FBECDBFDF91CF911F910F91FF90EF90DF90CF90BF90AF909F908F90BC
S284005F007F905F904F90089520E0FC013191CF01311105C02F5F2730C1F780E0089581E0089527E0FB0111922A95E9F7FC0123E0F695E7952A95E1F7E60FF71F8770992721E030E001C0220F8A95EAF78081822B8083CB01B4CC0895A1E2B7E0FC013D9120812323219327E0A832B207C1F7CCCF0895A7E0B0E0EFEBFFE20C942BF7BE01D5
S284005F806F5F7F4FCEDFCE010196E6DFCE010196BBDF182F882339F0CE0101964EDD8091370781FF9FDD812F2796E3E00C9447F708950895A2E0B0E0E0EEFFE20C942CF78091EE058823E9F0BE016F5F7F4F81E290E02DD4BE016E5F7F4F8DE190E027D48981823071F48A8181110BC089ED9FE29093F7058093F6058FEE95E00E9478C3FF
S28400600002C00E947AE12296E2E00C9448F78091EE0508950C9433ED0895A0E0B0E0E3E1F0E30C9424F7B82E7B01082F10E093E0169507959A95E1F78770C1E0D0E001C0CC0F8A95EAF7AC2E8FE38B1538F484E090E890933B0780933A07A1D1F801E850FA4F80818C2311F1C0910006D091010685E0C82E80E8D82E2097C1F0FE01E00F4C
S284006080F11F82818A2171F02A853B85232B29F4D0923B07C0923A0782D1EA85FB85B7018B2D19950990D881C02DE6CFCDB7DEB7EAE00C9440F7E82FF0E023E0F695E7952A95E1F7E850FA4F208130E0877041E050E002C0440F551F8A95E2F72423352381E0232B09F480E00895282F30E043E0369527954A95E1F7620F731F877021E02F
S28400610030E001C0220F8A95EAF7FB019281922381E009F480E008951F93CF93DF93182FEB01803438F023E030E830933B0720933A0735D1BE01812FD8DF81112AC0BE0180E096E09AD081110BC088E0FE013296DF011D928A95E9F7BE0180E096E09DD0412F50E063E0569547956A95E1F7177021E030E001C0220F1A95EAF7C40FD51F2B
S2840061808A81822B8A83FA01E850FA4F8081822B8083DF91CF911F9108951F93CF93DF93182FEB01803438F023E030E830933B0720933A07F4D0BE01812F97DF882369F1212F30E073E0369527957A95E1F7177041E050E0012E01C0440F0A94EAF7942F9095C20FD31F8A8189238A83E0910006F0910106309759F0DF01A20FB31F1296F0
S2840062008C91842351F40190F081E02DF3CFF901E850FA4F808189238083DF91CF911F910895DC01ED91FC911197309721F0208131812D933C93CF01089561157105A1F0DC01ED91FC911197E617F70759F4208131812D933C930FC0808191818617970729F0FC013097C1F780E00895DB018D919C919183808381E00895DC01ED91FC9136
S284006280309739F0E617F70731F00190F081E02DF7CF80E0089581E008950F931F93CF93DF938C01EB01E9DF882349F080E090E890933B0780933A075AD080E014C019821882D801ED91FC911197309719F4CD93DC9308C080819181009711F0FC01FACFD183C08381E0DF91CF911F910F910895CF93DF93FC0182819381009781F40E9499
S28400630061E4C22FD32F0E943B5344E0FC0121913191CF01C227D3274150C1F7CE010E948EF981E080936A0282E792E00E940DE4DF91CF91089584E692E00C94AC53089580916A02882369F082E792E00E943DE488E791E3909371028093700210926A02EACF089582E792E00C943DE4089582E090E090933D0780933C0780913A07909198
S2840063803B0790933F0780933E07E0913807F0913907309719F08CE397E01995089583E090E090933D0780933C0780913A0790913B0790933F0780933E07E0913807F0913907309719F08CE397E019950895EF920F93FC01618372834F3740F081E090E890933B0780933A07C2DF20C0403808F04FE7440F808181700187842BE0FA80F974
S284006400808334832383CB01AC016081669504962181328174E0679F200D311D11244217530720F4DC0111971C92EECF0F91EF900895A0E0B0E0EFE1F2E30C9425F7EC018B01B42E0E9461E469017A018D819E81AF81B885A7019601281B390B4A0B5B0BCA01B9012B813C8140E050E00E94B3F62F3F31054105510518F42223F9F001C07F
S2840064802FEF89819A81BC0138813695049649815A81E4E03E9F400D511D11246417750748F4FC013291432F231708F4422F341B3083E9CFCD82DE82EF82F886A981BA814881842F86959D0154E0859F200D311D1124C901E0E0F0E0A817B907C0F413965C911397552359F02D913C9111972017310729F412962C9112972B15C1F030972A
S28400650019F02381521708F4FD011496E5CF40FD06C0309771F0838181110BC002C0309751F011830083B2828985838304C080E003C082E001C081E0CDB7DEB7E9E00C9441F7FECE08950895CF93DF9360917F027091800280E090E0E1E0F0E09F01082E02C0220F331F0A94E2F740910206509103064623572342235323452B11F16FB7F3
S284006580F8944091020650910306209530952423352330930306209302066FBFFC01EE0FFF1FE35AFC4FC081D181209739F486E090E890933B0780933A07F1DEFE01199504C001968F30910549F6DF91CF9108950E9405E20E94C8B2882371F02FB7F8948091020690910306806190930306809302062FBF81E0089582E00895A5DF60E0B6
S28400660070E08BE20ADD8091020690910306892B09F4D0DC209102063091030681E0232B09F480E0089590CF0895FC012081211105C021E02193CF010C940DE40895FC012081213021F41192CF010C943DE40895A5E0B0E0EEE2F3E30C9428F77C012A833B834C835D836983EADFF7011082698163872A813B814C815D812783308741872D
S2840066805287158704872596E6E00C9444F70895813031F018F0823029F008952F9A08952E9A08952C9A0895813031F018F0823029F008952F9808952E9808952C980895279A269A249A2F9881E0EEDF82E0ECDF80E0089589E3E1E0F4E1DF011D928A95E9F7E2E2F4E181E080839AE0918312821382148215821682178295E090932C14EA
S2840067008093341487E080932D1447E850E066E47BE482E894E10E9499F943E150E063E37BE48EEE93E10E9499F943E050E060E37BE48BEE93E10E9499F948E450E068EE7AE48AE394E10E9499F98BEA9CE0E0E4F7E0DF019C011D9221503040E1F70895A4E0B0E0E6EBF3E30C942CF7BC011A8219821C821B828827811521E0920769F097
S284006780811522E09207B9F0892BE9F4660F771F660F771F6658764B07C07727660F771F660F771F6254774B44E050E0CE0101960E9499F90FC07727660F771F660F771F625D774BF1CF8AE090E690933B0780933A07E5DD69817A818B819C812496E2E00C9448F777DF43CA0895A4E0B0E0EBEFF3E30C9428F77C018B01B2DFEE24E11407
S28400680022E0F20669F026E030E630933B0720933A0769837A838B839C83C1DD7A816981F801718360832496E6E00C9444F7A4E0B0E0EDE1F4E30C9428F78C017B0190DFE114F10479F420E030E630933B0720933A0769837A838B839C83A1DD9C818B817A81698100270115110549F0011521E0120751F4AC01C7010E9499F90CC0AC01CC
S284006880C7010E94AFF907C081E090E690933B0780933A0784DD2496E6E00C9444F7A0E0B0E0E5E5F4E30C9426F78C01EB0158DF6B017C01209739F484E090E690933B0780933A076CDD00270115110539F085E090E690933B0780933A0761DDA701BE01C6010E94AFF9CDB7DEB7E8E00C9442F7FC0195A5892F887090FF09C0882379F0D4
S28400690081E021A532A52236310550F408C0882331F081E021A532A52436310508F480E08170089521E030E001C0220F8A95EAF780910706822B809307062FB7F8948091020690910306806290930306809302062FBF0895CF93DF93E0910E15F0910F158E179F0718F482E894E446C08E1B9F0B6CE670E00E948CF680910915681718F0C4
S28400698083E894E439C08CE6689FE00DF11D11248781869590E08230910559F014F00397D1F580910D158823B1F1815080930D1532C080910C15882319F0815080930C15DF01AC5ABF4FCD91DC912091111530911215CE01821B930B63E270E00E948CF6C217D30718F484E894E406C080910A15681740F085E894E490933B0780933A07FB
S284006A00B6DC0CC0D90183E2689FA00DB11D11248C9181111C9287818E7F8783DF91CF910895CF93DF93EC0118A68EA19FA1892B39F484E494E490933B0780933A07AFDCEEA1FFA1CE0188961995DF91CF910895EF92FF920F931F93CF93DF93A091091540910E1550910F1520E030E090E09A1709F45AC0FA01E20FF31FB90164597F4F9D
S284006A80B781B0FD63C07F0194E5E90EF11CD7011D921C928230B1F010F08330F1F590910D1540910B15941708F03EC09F5F90930D15138214821582168290859F709087128235C010910C1590910A15191760F500911015409111155091121590E09017B9F0EA014D5D5F4FBA0163527109DB016C9161110BC01F5F10930C1541E04883C8
S284006B006896D701CD93DC93428302C09F5FE7CF4091101549130BC007C081E894E490933B0780933A073BDC80E090E012C09085907F9087880F816087831182108280910E1590910F15820F931F03C09F5F9B018ECFCDB7DEB7E6E00C9444F720911806215020931806BC0182E396E096DB81E0D9CE0F931F93CF93DF938C01C0910806B1
S284006B80D0910906809104069091050680519140813F954048F4B80188E096E07EDBCD2B59F480E0BFDE08C083E694E490933B0780933A07F4DBEFCFDF91CF911F910F910895BC016151710984E396E066DB81E0A9CE209118062F5F209318060C9442936F927F929F92AF92BF92CF92DF92EF92FF920F931F93CF93DF931F92CDB7DEB75B
S284006C008C017B01FB01E25AFF4F8EEA95E3918380833E9782E08083D80159968D919C915A973196918380839E968C919E97379680833196108231969D968C919D978095881F8827881F8083319681E08083319680839D968C919D9786FD0BC021E059968D919C915A97883F9F4F08F020E0822F01C081E0F701E35AFF4F81708083C8019B
S284006C8037DEF701ED5AFF4F6F0197012C5A3F4F3901882309F442C09090BB154091BC15242F30E08091BF1590E001972817390739F4D80199968C91499D80191124982EA92CB12CC5014E968236910538F081E594E490933B0780933A0761DB3091BB152091BC158091D1159091D215F80163A574A5329F600D711D1124A5014E960E94C2
S284006D00AFF98AE0890DD6018C938091D1159091D2154496F301918380830EC0D80199968C919997885F80839B968D919C919C970897D9018D939C93F301C080D180D6012C912C7F2F7E2C93F801818D928D237F883F9F4F10F02860D6012C93F60180818F7D8083D8019D969C9192FD03C08F7B808322C08064F6018083D70118962C919B
S284006D801897207F216018962C93C8012983B0DD29812F70882341F08091C1158295807F822BF701808708C08091EC138295807F822BD70118968C93C8019ADDF60190818823A1F0906890839091BC1580858C7F911106C0816080878091BF15818709C0826080878091BC15818703C09F77F6019083D80193968C919397F6018183969685
S284006E008D919C9197979383828394968D919C9195979583848398968C918683C80168DD882331F08091C015D60117968C9308C080912F0691E0980F90932F06F6018783C7010996C6DE80E00F90DF91CF911F910F91FF90EF90DF90CF90BF90AF909F907F906F900895E091CF15F091D015BF0180819181B5CEEEEAF5E1F0937F15E093CC
S284006E807E1592E090937A15209121153091221530937C1520937B159BE090937D15109282151092831591E090938415909385151092861521EA39E330938915209388159093871590819078926090689083909128159093AF1520912415309125153093B1152093B01520912615309127153093B3152093B215909123159093B41590916A
S284006F0029159093B51592E09093B61590911F159093B715909120159093B8159091B9159093971510921A1510921B1510921C1510921D158093131583E395E14ACEA4E0B0E0E5EAF7E30C942AF7182FBE016F5F7F4F8AE190E06BDC20911D0630911E0640911F0650912006A12FB0E00E940CF709811A812B813C81600F711F821F931FE3
S284006F802496E4E00C9446F70F931F93CF93DF93EC018C0107551109FC013C970190F081E02D6FEF818192810E94618A882361F0FE0132978EEA95E39183808323971882C8010E94329302C0CE01C8DDDF91CF911F910F91089560E175E180E191E027DC61E175E18EE092E000DC809111159091121520E030911015231748F4FC0133E24B
S284007000239FE00DF11D112410822F5FF3CF69E075E18FE091E00BDC6EE075E18DE092E0E4DB20910915E0910E15F0910F1580E0821739F097819E7F97838F5FE459FF4FF7CF9091101590930A1580930B1510920C1510920D156BEB75E188E291E0E7DB69E175E189E291E0E2DB68E175E188E191E0DDDB80911815882351F064E175E11D
S2840070808FE092E0B2DB61ED75E180E192E0ADDB30911815209119158091141590911515329F800D911D1124909317158093161510921315089569E376E082E192E095DB68E376E087E191E0B2DB80913806E0913906F0913A06882349F0309739F489E294E490933B0780933A0741C99F0146E1849F200D311D1124C90128EAE817F907F6
S28400710018F4258B7696FACF08951F93CF93DF93EC01162F0097B1F08D819E81892B91F088E096E07ED81F83ED81FE81CE01079619958091080690910906892B59F080E0F1DB08C08BE694E490933B0780933A0726D9E6CFDF91CF911F910895A1E1B0E0E4EBF8E30C941CF78C01262E29873A874B875C870E9409E0E091210629853A85F4
S2840071804B855C85EE2361F130900915C0902406D0902506E0902606F09027062B013C014C185D086E087F084D825E826F827886E0910E15F0910F15198A66246A94762C430169827A828B829C8246015701861A970AA80AB90A8D869E86AF86B88A0BC002EF19E3A3C0A781A0FD09C0A989AF5FA98BE459FF4FB989B311F5CF40C0B08577
S284007200BF70B23099F7AA7FA23081F783809480A580B68081149104A104B10439F3E017F10721F34D805E806F807884481459046A047B0468F44D845E846F847888840C951CA61CB71C83829482A582B68204C0138214821582168283809480A580B68049805A806B807C8084149504A604B70408F0BCCF89829A82AB82BC82B7CF2110C6
S28400728046C080901A1590901B15A0901C15B0901D1581149104A104B104C9F12B013C014C185D086E087F08481459046A047B0488F4C80CD91CEA1CFB1CC61AD70AE80AF90AC0921A15D0921B15E0921C15F0921D1508C010921A1510921B1510921C1510921D1580911A1590911B15A0911C15B0911D1549805A806B807C808415950557
S284007300A605B70520F489839A83AB83BC8389819A81AB81BC81281739074A075B0710F4DA01C90102EF19E39C01AD0161E081E296E08ED981E296E078D96196E2E10C9438F78091180681508093180680911315833009F43CC0823039F082E594E490933B0780933A071BD8E091BA15EE2379F181E080931315A091ED13B0E011972AE0DC
S28400738030E00E9406F79B01AC018091190690911A06A0911B06B0911C06280F391F4A1F5B1FA091EC13B0E00E940CF79B01AC0160931A1570931B1580931C1590931D15E150E093BA1561E080E090E0C7CE1092131510921A1510921B1510921C1510921D150895A4E0B0E0E8EFF9E30C9424F72FEF3FEFA90110E0AA24AA94B12C809130
S2840074000915181708F054C0E0910E15F0910F158CE6189FE00DF11D1124678160FF46C07085872F8F70823009F040C0862F8A7F8230E1F583819481A581B681C0902806D0902906E0902A06F0902B068C199D09AE09BF0983839483A583B6830097A105B105E9F4872F807F846080876E7F663059F4C5010090ED1302C0880F991F0A94D3
S284007480E2F780958093BE1581E029833A834B835C8348DA29813A814B815C8107C082179307A407B50710F49C01AD011F5FA7CF80911A1590911B15A0911C15B0911D150097A105B10551F1C0902806D0902906E0902A06F0902B068C199D09AE09BF0980931A1590931B15A0931C15B0931D150097A105B10559F482E029833A834B835E
S2840075005C83B9DC29813A814B815C8107C082179307A407B50710F49C01AD012F3FEFEF3E074E075E0751F002EF19E361E081E296E08ED881E296E078D803C081E296E07ED82496EAE00C9440F7A0E0B0E0EBEAFAE30C9423F78C01962EC0913906D0913A06809138066E0196E1899FC00CD11C1124F8018589811109C07E01F6E1EF0E67
S284007580F11C58018CE0A80EB11C09C085E294E432C08A3A89F06696F6E1EF0EF11CF801CC15DD0508F04AC0908521853285F70131978081843A69F7F7013E9780819813EACF89859A852817390729F748E050E0B801CE010E94A2F9892BE9F6F8018385F7013B9790818913D6CF813059F0833091F086E294E490933B0780933A070E943A
S284007600B7311DC0F801248535858C859D852817390709F617C0F8019489F701329780819813B9CF48E050E0BE01645F7F4FC5010E94A2F9892B09F0AECF04C0958A80E090E001C0CE01CDB7DEB7EBE00C943FF7CF93DF93EC010097B1F18AEA8D8B0E943B5348E050E0BC01CE010E94A2F9892B51F582E88D8B888581508E3F20F58B855C
S2840076808330C9F48C8981508E3FE8F42C853D854E855F85688979898A899B89A0E00E9487F771F480E194E490933B0780933A070E94B73108C0813019F086EA8D8B03C01D8A81E001C080E0DF91CF910895CF93DF93EC01009761F169AB4115510551F0FA0140815181628173814AAB5BAB6CAB7DAB04C01AAA1BAA1CAA1DAAEFA5F8A955
S284007700309749F484E594E490933B0780933A070E94B7310DC0CE01C1961995CE01E8D8882331F01092D0151092CF1581E0FAD8DF91CF910895A1E0B0E0E1EAFBE30C942AF78C01FC012081318180911115909112152817390740F487E494E490933B0780933A070E94CF31F801808191812091111530911215821B930B63E270E00E942E
S2840077808CF680910A15681750F088E494E490933B0780933A0769830E94CF3169818091111590911215F3E26F9F800D911D11242196E4E00C9446F7FC0120814597211107C0BC0186E396E00E944D3181E0AAC840E050E069EA7BCFA3E0B0E0E2EFFBE30C942AF78C01675F7F4F7A836983BE016D5F7F4F8EE090E01AD88B81D80199961B
S2840078005C91999740912F06882309F442C089819A81FC01E95BFF4F21E0208359962D913C915A973196318320833296585F50839B96ED91FC919C979C01255B3F4F3897D901ED93FC938FEF8183D80196968D919C9197979383828394968D919C9195979583848398968C91868381E0840F80932F064783D901ED91FC9180818078886036
S2840078808F778083E981FA81EB5AFF4F8EEA95E344C089819A81FC01E95BFF4F22E0208331962DEF3FEF318320833296575F5083D8019B96ED91FC919C979C01255B3F4F3997D901ED93FC93D80159968D919C915A979283818396968D919C9197979483838394968D919C9195979683858398968C91878381E0840F80932F064087D9017D
S284007900ED91FC91808180788C608F778083E981FA81EB5AFF4F84EC97E391838083E981FA81D8019E968C919E97E15BFF4F8083E981FA81E05BFF4F8091EB138083E981FA81EF5AFF4F9D968C918095881F8827881F8083E981FA81EE5AFF4F81E08083E981FA81ED5AFF4F8083E981FA81EC5AFF4F808389819A812CD980E02396E4E07F
S2840079800C9446F7DC01ED91FC919093D0158093CF151092BC151092BD158091EC138093C1152091BB1530E081A592A5B9010E948CF6462F6093BF1581A592A5B9010E948CF6892B19F04F5F4093BF158FEF90E00090ED1302C0880F991F0A94E2F780958E7F8093BE1580912F0691E0980F90932F068093C0150895A0E0B0E0E2E0FDE38E
S284007A000C9423F7EC016B01942E59010091390610913A0680913806780196E1899FE00CF11C1124209761F0C017D107F0F583E294E490933B0780933A070E94CF3135C0E801CE01801B910B66E170E00E948CF6892B79F084E294E490933B0780933A070E94CF3106C01D89143A39F01A3A29F06696CE15DF05B8F313C088859812F8CFB4
S284007A8089859A85C816D90699F748E050E0B501CE010E94A2F9892B59F7143A49F703C080E090E004C0CE0102C06696CACFCDB7DEB7EBE00C943FF74F925F927F928F929F92AF92BF92CF92DF92EF92FF920F931F93CF93DF931F92CDB7DEB72C017B010E943B536C0157018AE6A80EB11CF501008111814114510431F0E114F10419F02F
S284007B00C114D10451F484E194E490933B0780933A070E94B73188EA5EC058EAF20166A177A1960140A5C801598366DF8C015981009709F44FC0F20186899789892B19F5F8017384F3E07F121EC048018CE0880E911CC4010E9414C3892BA9F4F2017286D2011D9688E0F40101900D928A95E1F78CEF9DE3F201978B868BC20106960E94E9
S284007B8009C380E028C0F50111830083F80183858330B1F4C8010C960E9414C3009711F459EABCCFF8012489F20123A3FC0180819181F201928F818FB701C20111D80BC0F80184859585F201928F818FB701C20103DE01C0852F0F90DF91CF911F910F91FF90EF90DF90CF90BF90AF909F908F907F905F904F900895FF920F931F93CF93AD
S284007C00DF938C010551110920910915C0910E15D0910F15F12CF216E9F08F8180FF16C0888199818017910789F4BE01C80144DF882381F040E050E0682FC80148DDCE010E94AA3481E00E94923404C0F394C459DF4FE1CF80910915F81640F085E194E490933B0780933A070E94CF31CDB7DEB7E5E00C9445F7EF92FF921F93CF93DF93A4
S284007C801F921F92CDB7DEB77B010097A1F06115710589F0FC01178A168AF701E659FF4F11821082B70108DF182F882389F0C7010E94AA340DC023E134E430933B0720933A0789839A830E94CF3189819A81E2CF812F0F900F90DF91CF911F91FF90EF900895A1E0B0E0E7E7FEE30C9428F78C01262FDC01ED90FC90009709F444C0E11451
S284007D00F10409F440C02E3C61F0822F8F7D803D41F0213D11F082E005C0F70185A587FFFACF83E0F801EB59FF4F4081518162817381D701D2964D935D936D937C93D597D1962C93833071F0D801ED91FC91808D811108C0F701178A168AB801C701ACDE883AE1F4A7014E5C5F4FD701D1966C91F80180819181ABDCC8010E94AA3481E0F3
S284007D800E9492340BC08FE494E490933B0780933A0729830E94CF312981B5CF2196E6E00C9444F7CF93DF93EC0152DC882309F454C060E0CE01C9DB892BC1F5209709F43EC08D8981113BC0509138062091390630913A0640E0451781F0C9012A5E3F4FF90131976081683A31F424EAFC01258B009731F432C04F5FEECF8EEA8D8B2DC01E
S284007E00209719F03D89332349F087E294E490933B0780933A070E94B7311AC036E1FE01DC0101900D923A95E1F706C066EACE018CDB009791F024EAFC01258B09C080E294E490933B0780933A070E94CF31BCCF60E070E080E10E940D30DF91CF910895CF93DF93EC010097D9F08091390690913A06C817D907A0F02091380636E1239F52
S284007E80800D911D1124C817D90750F48D89843A11F08A3A71F488EA8D8BDF91CF91089581E294E490933B0780933A070E94CF31EDCF82E294E490933B0780933A070E94CF31E9CFCF93DF93EC01C2DB882359F064EACE013ADB009731F0C2DF60E070E080E10E940D30DF91CF9108952091390630913A06009751F0FC01769680913806F9
S284007F0096E1899F200D311D112408C0F901F6CF8589843A49F08A3A39F07696E217F307B8F380E090E00895CF010895CF93DF93EC01BC0186E396E00E944D311F8A1E8A81E00E949234DF91CF910895CF93DF93EC01BC0184E396E00E944D311B8A1A8A81E00E949234DF91CF910895AAE0B0E0ECEBFFE30C9422F710912C14BE01665FC1
S284007F807F4F87E091E00E941734BE016F5F7F4F8AE190E00E941734C980DA80EB80FC80812F90E0A0E0B0E08C159D05AE05BF0578F0CC0CDD1CEE1CFF1CC982DA82EB82FC82BE016F5F7F4F8AE190E00E944F34C12ED12C87E0C80ED11CEE24D7FCE094FE2CC0921D06D0921E06E0921F06F09220062A8530E0A3E0B0E00E94F7F69B0137
S284008000AC01C701B6010E9471F609811A812B813C81600F711F821F931F6093190670931A0680931B0690931C0681E08887BE01675F7F4F87E091E00E941734BE01685F7F4F84E290E00E941734898590E0A0E0B0E0880F991FAA1FBB1F8F3F9105A105B10529F020F08FEF90E0A0E0B0E00E949F37E885EE2309F45AC0812C912C540166
S2840080808B019C0101501E4F2F4F3F4F800E911EA21EB31E660F771F881F991FE15081F718867501640129E0F694E794D794C7942A95D1F7D501C4019170AA27BB2741E050E060E070E0892B8A2B8B2B19F440E050E0BA01C40ED51EE61EF71E1E821D821F82BE01695F7F4F81E191E00E941734BE016B5F7F4F88E092E00E94F533970106
S28400810086010F3F11052105310529F020F00FEF10E020E030E06D817E81C12CEE24E39420E032E04F818AE096E00E94E7312A96ECE00C943EF7882331F00E948BF980932F061092180610923706109236061092350610923406109233061092320610923106109230068AE090E0A0E0B0E08093C8159093C915A093CA15B093CB1583E300
S28400818097E39093CE158093CD1581E08093CC15109220151092291510921E15109225151092241510921F151092231510922715109226151092221510922115109228151092131510921A1510921B1510921C1510921D158CE6EAE2F5E1DF011D928A95E9F783E2E6E9F5E1DF011D928A95E9F78091191590E0019620911815289FA00198
S284008200299F500D112460E070E080911415909115150E94C9F98EEA95E190937F1580937E15A4CE4F925F927F928F929F92AF92BF92CF92DF92EF92FF920F931F93CF93DF931F92CDB7DEB77C01009781F02C0127E0421A510880910806909109068415950529F4D20112968C91893149F086E694E490933B0780933A070E94B731CBC082
S28400828080910406909105068115B7E09B0709F07FC000913606109137060115110551F086E396E00E94113140E050E063EAC8010EDAEFCF6CE6C62ED12C7CE6772EE2E4AE2EE4E4BE2EF3E48F2EF4E49F2E00913206109133060115110509F444C0B80182E396E00E941D3180910E1590910F15F801E81BF90BCF01B6010E948CF68091E2
S2840083000915681740F0B0923B07A0923A0769830E94CF316981E0910E15F0910F15679DE00DF11D1124808191812781269530E02130310561F02230310549F2232B61F4A8014B5F5F4FD80112966C9103C040E050E067EABCD9BBCF90923B0780923A070E94CF31B4CF10E0809109151817D8F480910E1590910F15BCE61B9F800D911D83
S2840083801124FC01278120FD0E94AA341F5FECCF8115924041F087E694E490933B0780933A070E94CF31109207061092060681E0C2DE0E94EB370E945B3882E393E09093050680930406D7018C91F201828788E096E00E941131D20118968D919C911997892B41F489E694E490933B0780933A070E94CF31D2011896ED91FC911997C70117
S284008400039619958091080690910906892B19F080E00E9492340F90DF91CF911F910F91FF90EF90DF90CF90BF90AF909F908F907F905F904F900895CF93DF93C0910806D0910906209741F484E694E490933B0780933A070E94CF318A818A38F9F0853C09F44FC0893109F06CC080910406909105068031914019F480E092E002C080E0F3
S28400848097E0909305068093040682E191E49E838D83CE0103960E941FAA5BC08091040690910506823323E0920719F08031964049F48FE394E0909305068093040656DD1D8202C083EA8D8388E096E00E9411318B819C81892B41F48AE694E490933B0780933A070E94CF31EB81FC81CE01059619958091080690910906892B51F180E05A
S28400850018C080910406909105068F339440A1F480E095E0909305068093040682E090E09C838B8381E296E00E941F331092180681E00E9492340DC063EACE010E94853808C085E694E490933B0780933A070E94CF31DF91CF910895AAE0B0E0E2EBF2E40C942CF7DC011396ED91FC9114972181328140E450E05A834983AE01495F5F4F69
S2840085805C834B8341E050E05E834D836F3FBFEF7B0719F437FF15C003C02617370789F098878F837A876987BE016F5F7F4F8EE10E940D3081E02D813E81232B19F080E001C081E02A96E2E00C9448F7009729F480911606909117060895FC01808191810895CF93C82FE0E0F0E0CF01EFDFFC01009739F0A381B4818C91C813F6CFCF01B4
S28400860002C080E090E0CF910895CF93DF93EC010097D9F086EA8F83EB81FC813097A9F080819FEF980F903F80F4DBDF892B69F421E08D819E81892B09F020E02A83BE0186E196E00E944D311F82DF91CF910895DF92EF92FF920F931F93CF93DF938C01009741F480E394E490933B0780933A070E94CF31C0E0D0E0A1E3EA2EA4E4FA2E0E
S284008680CE01A4DFEC01009789F18A818111F8CF8B819C81892B31F4F0923B07E0923A070E94CF31F80160A171A1CE0155DF882339F3EB81FC81D0806D2DF801878190850E94618A8823E1F2F801D18AED81FE81309749F482E394E490933B0780933A070E94B73103C0C8011995CACFCDB7DEB7E7E00C9443F7A1E3B0E0E1E8F3E40C9486
S28400870022F78C01B62EDC015C96ED90FC905D9757966D917C915897F70147818AE096E00E941932882309F414C1D70111968C919FEF980F9E3F28F454DF6C01009719F408C1C12CD12CF801248985899689213009F022E02F8399878887D70111968C918A8BF8018789908D0E9417C3FC01009799F083E08B8B70816181528143813481E4
S2840087802581968187817E8B6F8B588F498F3A8F2B8F9C8F8D8F02C082E08B8BD80157968D919C9158979D8B8C8B59968D919C915A979F8F8E8FF701868188A3848195819AA389A3828193819CA38BA35B968C9190E09C012A5031093EA32DA319A6208127FD04C09C012850310906C02085237029F49C01295031093EA32DA32DA13EA122
S284008800821B930BF801248D358D280F391F38A72FA3BAA684A18BA7868D8CA740A151A162A173A14DA75EA76FA778AB878D89ABD7018C9187FF48C018968C918370823009F042C0E0911615F0911715808190E09EA38DA38080912CAA24A394B12C20911E1530E08091141590911515A216B3064CF5E0911615F0911715EA0DFB1D4081AF
S28400888050E0209119152A9DB0012B9D700D1124680F791F880D991D0E94AFF9E0911615F0911715EA0DFB1D20818DA19EA1820F911D9EA38DA3BFEFAB1ABB0A8081880E911CCDCF98A78FA3C114D10449F0D6011596ED91FC911697CE010196199539C0F8018489813021F4CE010196B1DE31C0D70111968C918F3F41F5E12CF12CC701C1
S28400890065DE7C01009729F1D7011396ED91FC9114978081882399F312968C918111EFCF69A17AA1C70118DE882349F3D7011396ED91FC91149780818A8B1596ED91FC911697CE0101961995DACFCE0101960E948BCAC8010E941135E196ECE00C943EF7A1E0B0E0E6EBF4E40C9424F75C01DC015C960D911C915D97F80181812FEF280F70
S2840089802E3F80F429832DDE7C012981009751F0D80114966D917C911597DEDD882309F405C105C02E3F08F401C1E12CF12CF801808187FF04C09085937009F0F7C086FFF7C08C70883009F4F1C0D50157968D919C915897883FBFEF9B0708F0E7C0E114F10421F0F70122812111E0C0D5015C960D911C915D97F801208126FD02C090E0A3
S284008A00D2C02370213009F027E0F0900915E0910E15F0910F1530E0422F50E0B801640F751F3F15E9F0A781A530B1F4DF01AF5ABF4F0D90BC91A02D8A179B0769F4DF01AC5ABF4FCD90DC90C40ED51EDB01EC90D601DC90ED1499F23F5FE459FF4FE1CF82E029830E9428352981009741F2FC01EC5AFF4F0190F081E02DDF0158973FEA7B
S284008A8011963C9311971396BC92AE92129762E0DC01A05BBF4F6C93D50157964D915C915897DC01AF5ABF4F11965C934E9317961C9211961C9231E011963C9311963C9311961C924EEA55E3129611965C934E9311973C9330813C7F32603083D8014C914C70337F342B30834C914295417040FB34F93E7D3F7B30834C9147FB442740F9BD
S284008B0040FB37F930834C9130E0DC01AD5ABF4F7D0144FF0DC0D5015C964D915C915D97420F531FDA012C912183F701608337C048E04C93D80116964C911697418312964D915C9113975383428314964D915C9115975583448311964C914683D5015C964D915C915D97420F531FDA012C912783D8012C9127FF13C018962C91237031F430
S284008B801086F70120812F5F208309C0D7012C912D5F2C93D80118962C912370208709960E94E93591E081E08927A1C190E001C091E0F801808187FF92C18085837009F48EC1D5015C960D911C915D975B968C91F801F18420911815222309F487C196EFE92EE80E80911315813009F456C030F0843008F06BC180E494E46AC1D084B1E08F
S284008C00DB1274C12F1508F471C1809119158E1508F46CC190E00196289FA001299F500D112460E070E080911415909115150E94C9F98FEA8093B915D0921315F0921E15F5018789908D9093221580932115D80111968C9111978093231512968D919C911397909325158093241514968D919C911597909327158093261516968C91169715
S284008C808093281517968C91809329158091EC138093BA1510921F15F12CF8018085982F9370923011F0F11021C18C7F09F01EC180911E158F1508F419C12091211530912215D50157968D919C9158972817390709F00CC190912315F8018181981306C12091241530912515828193812817390709F0FCC0209126153091271584819581F5
S284008D002817390709F0F2C09091281586819813EDC09091291587819813E8C020911F154091ED130F2D10E0822F90E0840F911D081719070CF0DAC08F2D642F0E9480F6D92EF21668F48F2D891B80931F1521E030E001C0220F4A95EAF72195209320152091191580911415909115154E2D50E0D5015C966D917C915D97665F7F4FF29E61
S284008D80800D911D11240E94AFF9E0911615F0911715E00FF11FE08270911F1520911E157F1111C09091ED13822F8F19981708F4892F41E050E0082E01C0440F0A94EAF741954093201541E050E00D2C01C0440F0A94EAF760912015642B609320156F3F79F4FF24FA94F70E822F90E04091ED1350E0871B9109481759070CF4CA01F80E02
S284008E008F2D90E030E0215031098217930751F46F3F21F483E00E943B3763C082E00E943B3764C0A091ED13B0E011979D01270F311D8217930711F06F3F09F582E00E943B37809120158F3F09F050C08091ED1390911F15980F90931F1520911E1521502F19821708F4282F81E090E0022E01C0880F0A94EAF781958093201537C02AE075
S284008E8030E00E9406F79B01AC018091190690911A06A0911B06B0911C06280F391F4A1F5B1FA091EC13B0E00E940CF79B01AC0160931A1570931B1580931C1590931D1561E080E090E00E94AE3810C083E594E490933B0780933A070E94CF3107C0992329F06FEAC50107DC80E001C081E02196EAE00C9440F7A4E3B0E0E1E8F7E40C94CA
S284008F001CF7C0900406D090050620E1C21621E0D20609F46CC12EE4222E24E4322EAA24A394B12C82E396E00E9411317C01009709F45DC100910E1510910F15C701801B910B6CE670E00E948CF680910915681748F089E494E490933B0780933A070E94B73145C13CE6639F000D111D1124D80117968C91B0E1CB16B6E0DB0621F0C11446
S284008F80E5E0DE0699F58E7F843019F5C8018C5A9F4F0E949B3B4C01DC0111966C91119712968D919C911397892B51F4EAE4F4E4F0933B07E0933A076CAB0E94CF316CA9D70112968C91811104C0F4018281938192DBA7014B5F5F4F63EAD8018D919C910E94673BC7010E94AA349CCF8695482E512CB1E04B165104B1F054F4452809F0E0
S284009000EFC0D70112966C91C8010E94713E8ACFF2E04F16510409F4BCC023E04216510409F47CC0DDC0F80180858F70813009F079CF80809180D70119968C910E949F379B01AC01A091EC13F801808582958F70A81BC20102C0880F991FAA95E2F7DC010E9416F72B013C01D70112966C91611115C043825482658276820E948BF991700F
S284009080B301A201480F591F611D711DD80113964D935D936D937C9316972EC06E3C51F0603F41F0603D31F0613D89F4F40195A597FF0DC0A7014B5F5F4FC4010E94673BC7010E94AA3481E00E94923490C0D80113964D925D926D927C9216970E948BF99170B301A201480F591F611D711DF8014383548365837683D80118968C91189780
S284009100807F826018968C93189713962D913D914D915C91169760E0C80104C2F80180858F70813009F0FECE2091BC1530E08091BF1590E001972817390709F4B5C1E091ED137091BE15272F30E080E090E0682F8E1708F0A9C10196A901062E02C0559547950A94E2F740FFF2CFC501062E01C0880F0A94EAF7809587238093BE15809119
S284009180BD15860F8093BC1582EC95E10E940DE4C9CEC8018C5A9F4F0E949B3B8C01DC0111966C91119712968D919C911397892B51F4EDE4F4E4F0933B07E0933A076CAB0E94CF316CA9D80112968D919C91139792DAC7010E94AA3481E00E949234A2CE30923B0720923A070E94CF319BCE1BAA1AAAA1EE4A2EA5E35A2EBFEA2B2E13E0C6
S284009200312EAA24A394B12C66246A94712C95E4892E94E4992E84E396E00E9411318C01C0900406D0900506009751F1F80182899389892B09F079C1048CF58DE02D80818370813009F071C18281853009F46DC1D80157968D919C9158970E9417C3892B09F063C122E0F80126838789908D90878783538A428AC80102960E9409C3CBCFFE
S284009280C1FE11C050E5C52E54E4D52E62E0462E72E1A72E74E4B72EE8E05E2EFCED8F2EFBE39F2E3BC000913606109137060115110509F458C0B80186E396E00E941D3140E050E063EAC8010E94673BECCF808D833081F57801FBE1EF0EF11CC7010E9414C3892B39F5D8011D96F701852D01900D928A95E1F7D80158968C9158971A964A
S2840093008C931A9757969C928E925697C80106960E9409C386E396E00E941131009136061091370601151105F1F0F80186899789892B69F28091CF159091D015892B09F4BEC2C8010E947834882309F4B8C2C8010E947834882309F4B2C2F8010081118101151105A1F780910406909105068115B5E09B0721F08031F6E09F0769F5F12C36
S2840093800EC02CE6F29E80011124E0910E15F0910F15E00FF11F8781833031F0F39480910915F81670F320C080858F70843011F08230A1F740E050E063EA808191810E94673B80910E1590910F15800F911F805A9F4F0E94AA34E2CF8F33944029F4F12C80910915F81648F080910406909105068115954009F080C351C000910E151091E6
S2840094000F158CE6F89E000D111D1124D80117968C91179780FF40C018969C911897292F2F702430C9F5282F2A7F2230A9F5907F79F19160905118969C938E7F823071F4C80109960E94E935F801238134814581568160E0C8010E94AE381EC08630E1F48091BE158E7F8093BE158091BD158093BC158091C11581508093C115E091CF1507
S284009480F091D015BF01808191810E94F03504C067EAC8010E94713EF394A2CF80911806882309F4AAC228C3F70181850E949F379B01AC01A091EC13F801808582958F70A81BC50102C0880F991FAA95E2F7DC010E9416F72B013C010091CF151091D0150E948BF99170B301A201480F591F611D711DD80113964D935D936D937C93169706
S284009500E091CF15F091D0158085807F826080878091CF159091D015FC01238134814581568160E00E94AE38FDCCD8015C96ED90FC905D97BFE3CB16B4E0DB0669F0D7018C918370813041F0F80185A1811104C0C8010E941135A4C1D7014C91642F607446FF11C050910C152091091530E080910D1590E0850F911D821793074CF78091D2
S2840095800A15581728F7242F2C70243009F3662331F0842F83708230D9F243FDD9CF45FDD7CFF801D488F1E0DF1671F032E0D312CFCF4370842F90E0009721F0029709F47AC0C6CF2C3031F0C801CAD9882309F467C1BECFD80157966D917C915897F70140858AE096E00E941932882309F4B0CFD8015B968C91893008F4AACFB1E0BF834A
S284009600F7018181928199878887D80157968D919C9158970E9417C3FC01009791F03B8A708161815281438134812581968187817E8B6F8B588F498F3A8F2B8F9C8F8D8F01C0DB8AF8018789908D9D8B8C8B818D928D9F8F8E8FD70117968C91179788A315968D919C9116979AA389A313968D919C9114979CA38BA3838D90E009979EA3EC
S2840096808DA3848D958D099698A78FA319A62AA684A18BA7868D8CA780A191A1A2A1B3A18DA79EA7AFA7B8AB878D89ABCE0101960E9428434DCF423031F090923B0780923A070E94CF31C0900E15D0900F1580910915F6012CE6829FE00DF11D1124CF01C816D90608F034CFD60117966C91179760FFD2C018962C9118972F70223009F0BB
S284009700CBC0F601EC5AFF4F0190F081E02D2D913C91D80157964D915C915897D90159962D913C915A974217530709F0B5C0D70117963C91179727813213AEC014964D915C911597248135814217530709F0A4C012964D915C911397228133814217530709F09AC011963C9111972681321394C016963C91218132138FC06E7F623031F43E
S284009780F6018085807F836080873FC0663009F083C0D70119969C9119978091BD159813D7CE6091ED13262F30E0C501062E01C0880F0A94EAF781951A969C911A97982B1A969C931A97F6018085807F836080871A96EC91EF3F99F54091BF1550E07091BD15E70FCA01871B9109281739070CF4C9018E0F8093BC1590E0415051098417C6
S284009800950741F4C6010E94C23C60E0C6010E94713E9ECE760F7093BD158091EC138093C1157093BC15930102C0220F331F6A95E2F7B90160956E7F6093BE1523C0E095E093BE1580E090E02E2F30E0782F8617C8F40196A901072E02C0559547950A94E2F740FFF3CFC501072E01C0880F0A94EAF780958E238093BE158091BD15870F65
S2840098808093BC15E091CF15F091D015BF01808191810E94F0355CCE3CE6C30ED11C20CFD8015E968C915E978AAB5F968C918BABBE016E5C7F4F8BE30E940D30ACCCC8010E947834882361F08091D1159091D215892B09F4BDC0D8019D968C9182FFB8C0F80181A592A58536910518F085A583FFB1C0D80198963C90332031F0832D0E94F2
S284009900F142892B09F448C0F80185A5208D382F347082FF0AC0223031F4818D928D883F9F4FD0F502C02130B9F18EEF820F823038F4D80193968C91815F8E3068F18CC021118AC0332309F487C0F80166A077A092D67C01009719F080E090E00CC0B0923B07A0923A070E94B73176C0DC011B962C91213089F09701432DB3010E94FC3CF8
S2840099800097A1F769C0813008F475C0823009F49AC0833009F48AC026EAE12CF12C612C712CB80186E396E02CAB0E941D312CA921111CC0E114F10431F4D0923B07C0923A070E94CF31F30111830083C8010E947834882319F0C3010E94C23CB301C801F7011995282F882309F498CC40E050E0622FC8010E94673B91CC0091080610914C
S284009A000906F8018281853C41F08DE694E490933B0780933A070E94CF31D80113968D919C9114978D7F14969C938E931397892B09F062C080E00E949B4080E196E0909305068093040660E0C8010E94853854C02AEAA3CF20EAA1CFD80158968C91813009F091CF80E00E9428353C013CEEE32E3BE3F32E0DC0C8010E947834882371F038
S284009A8083E00E9428353C014BE3E42E4EE3F42E6114710409F467CC20E083CFF80185A582FF02C081E0EDCF80E0EBCFC8014B960E9414C30097F1F0DC018D919C91F801928F818F408EC8010E947834882311F083E008C0D8019D968C9182FF02C081E001C080E00E9428353C0120EFE22E25E3F22ECECF29EA51CFE496E2E10C9438F730
S284009B00AFE1B0E0E6E8FDE40C9429F7009749F485E495E490933B0780933A070E94B73182C0FC012081233009F07DC0218132813A83298328E03396DE01139601900D922A95E1F7FC0123852B87248535853D872C8728E03E96DE011E9601900D922A95E1F7FC01218D2D8F238D2E8F0789108DF688F6E0FF1508F056C0F8018081982F72
S284009B809370933009F04FC0807E09F04CC08181811149C0BE01615E7F4F85E190E00E941734F801208126952695277030E08F8D90E028173907B9F58281982F9370933091F5982F907F79F58C708C3091F481E08B87F8E0FF1538F5F801838194819F878E876FEF0E94618A8823E9F0F80129E003C0F801329727E085819681998F888FAA
S284009C00878190859F8B8E8BF21AFA8E020F111D1C8F0B8FE0911406F0911506309719F0CE01019619956F96E5E00C9445F780E191E090930506809304061092090610920806109207061092060610921706109216060E94EB370C943EAACF93DF93EC0161E872E085E20E948C3061E872E088E30E948C30209749F480E694E490933B0756
S284009C8080933A070E94B73105C089E18A83CE010E94B935DF91CF910895009741F481E694E490933B0780933A070C94B7312AE8FC0122830C94B935009741F482E694E490933B0780933A070C94B73125ECFC0122830C94B935CF9330911015809111159091121520E0231751F08396FC01B3974081442311F081E029C02F5FF4CFC0E017
S284009D0080910915C817E0F40E9407309CE6C99F9001112440910E1550910F15FA01E20FF31F882341F0878180FF08C080858F70823021F0E0CF878180FDDDCFCF5FE0CF81E090911315911101C080E0CF9108951F93CF93DF93EB01853239F41881BBDF91E09827912398831FC08833E9F4388140910915E0910E15F0910F1580E0841788
S284009D8071F0278120FF07C090859F70923019F42A7F223031F08F5FE459FF4FF0CF80E001C081E0832B8883DF91CF911F910895FC01808184FD0C945B380895A2E0B0E0E4EEFEE40C942CF7E0910606F09107062F2F30E09E2F9F5F983008F090E0692F70E0A901092E02C0569547950A94E2F740FF26C09093060681E090E0062E01C0A1
S284009E00880F0A94EAF78F2780930706660F771F6353744B42E050E0CE0101960E9499F989819A81892B41F480E094E490933B0780933A070E94CF31E981FA81199504C0E913C9CFE093060680910706882361F02FB7F8948091020690910306806290930306809302062FBF2296E2E00C9448F780913514853091F028F4882349F0823059
S284009E8069F004C0843141F0863141F080E0089580912E148B3010F488E0089582E00895833014F083E01BC096E0980F923010F48BEF15C098E0980F923010F489EF0FC09AE0980F923010F487EF09C09EE0980F943010F484EF03C0823F0CF48FEE809333140895C5DF282F220F220F280F30E0A90160E8869F400D511D1124CA0108957B
S284009F00809135148530E9F028F4882349F0823079F004C0843189F0863189F080E0089580912E14882349F08B3058F489E1089580912E14811105C002C082E3089588E2089580E10895CF93DF93EC01D9DFE82F9E01A0ECB3E00E94F7F69B01AC01AE2FB0E00E940CF728EE33E040E050E00E94B3F6CA01B901DF91CF910895CF93DF9340
S284009F80B1DFEC01BDDF282F2C9FC0012D9F900D1124BC0180E090E028EE33E040E050E00E94B3F62F5F20932C14DF91CF910895CF93DF938BE080932E1480E098EFAFEFB7E080932F1490933014A0933114B093321463E374E183E090E00E941734809133145EDF63E374E183E090E00E944F341092351477DF909337148093361438DF6F
S28400A00094E0899F800D11248093381431DF8093391486E390E0A0E0B0E08093011490930214A0930314B0930414109205141092061481E080930714109209141092081410920A140E948BF980930B14ECE0F4E18FEF80838183828383838483858386838783CFEFDFEFD0931514C09314140E948BF98093161485E08093171484E08093C1
S28400A080181483E08093191480931A14D0931C14C0931B1480E280931D1410921E1410921F14D0932114C093201410922A1410922B1464DFDF91CF910895A4E0B0E0E3E6F0E50C942CF7DC014C9150E0CA01805491098534910508F0DFC08E599D4DFC010C94F1F611968C918093061408C011968D919C911297909309148093081480E061
S28400A10015C111968C91853308F00FC180930A14F6CF11968C9180930B14F1CF11968C91119780930C1412968C91129780930D1413968C91139780930E1414968C91149780930F1415968C9115978093101416968C9116978093111417968C9117978093121418968C9180931314C9CF11968D919C9112979093151480931414C0CF119687
S28400A1808C9180931614BBCF11968C91863008F0CCC080931814B3CF11968C9190911714981708F4C2C080931A14A9CF11968D919C91129790931C1480931B14A0CF11968C9180931E149BCF11968D919C911297909321148093201492CF11968D919C911297B1DE69837A838B839C83BE016F5F7F4F03C0BD016F5F7F4F82E090E079C051
S28400A20011967C91119712966C91129713965C91139714964C91149715963C91159716962C91169717969C91179718968C91709322146093231450932414409325143093261420932714909328148093291457CF11968C918093051452CF11968C91883008F063C0809319144ACF11968C9180931D1445CF11968C918093171440CF119611
S28400A2808C91803108F051C080932D1438CF11968C9180932B1433CF4830510508F043C049555D4DFA010C94F1F68BEF3FC011962C9180912F1490913014A0913114B0913214022E04C0B695A795979587950A94D2F780FF2AC020932E1423C011968C9190E2980F903408F5DBDD63E374E183E090E00E944F3403CF11968C918430A8F4AF
S28400A30080933414FCCE11968C91853041F018F4833058F404C0843111F0863131F4809335142CDEECCE84EF01C088EE2496E2E00C9448F7A4E0B0E0E0EAF1E50C941EF7609018146091171470E0E0911A14F0E0262D30E0CB018E1B9F0B281739070CF4C901AA2797FDA095BA2F0097A105B10521F481E090E0A0E0B0E0712CC12CD12C65
S28400A38076018C019D01015011092109310942E0442E512C872C912CA12CB12C081519052A053B05B0F0AF01470D511D41505109520102C0AA0CBB1C4A95E2F74501AA2497FCA094BA2CC80CD91CEA1CFB1C7394E1CF262D30E040E050E0281B390B4A0B5B0B61507109A2E0B0E002C0AA0FBB1F6A95E2F711970E9416F79B01AC012C0D25
S28400A4003D1D4E1D5F1DA4E1B0E00E940CF79B01AC0169833A834B835C8364DD29813A814B815C81280F391F411D511D29833A834B835C8365DDA82FB0E029813A814B815C810E940CF728EE33E040E050E00E94B3F6CA01B9012496E0E10C943AF750DDE82F20911D1430E0A0ECB3E00E94F7F69B01AC01AE2FB0E00E940CF728EE33E024
S28400A48040E050E00E94B3F6CA01B9010895A4E0B0E0EDE4F2E50C9426F78C01FC01408150E0FA01E054F109E534F10508F0B2C0E155FD4D0C94F1F680910614F801818380E0D5C08091081490910914C3C080910A14F4CF80910B14F1CF70910C1460910D1450910E1440910F14309110142091111490911214809113145BC08091141458
S28400A50090911514A7C080911614D8CF80911814D5CF80911A14D2CF80911B1490911C1499C080911E14CACF809120149091211491C0BE016F5F7F4F82E090E00E941734C980DA80EB80FC80C114D104E104F10491F0D6DC282F30E0A0ECB3E00E94F7F628EE33E040E050E00E94B3F6C701B6010E94B3F602C024EF31E0F801328321839A
S28400A5809FCFBC016F5F7F4F82E090E00E94173497CF7091221460912314509124144091251430912614209127149091281480912914F801718362835383448335832683978380877DCF8091051478CF8091191475CF80911D1472CFFC01118271CF8091011490910214A0910314B09104142BC08091171463CF80912D14F801818336C037
S28400A60080912B145BCF2BDFF801618372838383948356CF4830510548F5FA01EC50FD4D0C94F1F680912E1449CF8091331446CF8091341443CF80912F1490913014A0913114B0913214F80181839283A383B48337CF48DCF8019283818332CF09DCF4E08F9F800D11242ACF03DC28CF84EF2496E8E00C9442F782E294E1089548E050E071
S28400A680BC0182E294E10E94A2F921E0892B09F020E0822F0895CF92DF92EF92FF92CF936B017C01E5DBC82F2BDC2C2F30E0A82FB0E00E94F7F69B01AC01C701B6010E9471F628EE33E040E050E00E94B3F6CA01B901CF91FF90EF90DF90CF9008952FB7F8948091800690918106946090938106809380063FB7F89480913B0681110FC028
S28400A7004FB7F8948091020690910306816090930306809302064FBF81E080933B063FBF2FBF0895BC018DE396E00E944D3180913C06811101C0D3CF0895FC011282F2CF21E0FC012283EECF22E0FC012283EACF23E0FC012283E6CF25E0FC0122831186108622E02783DECFA1E0B0E0EAEBF3E50C942BF710923E0610923D065AD11FB701
S28400A780F894CE0101960E943FD9811104C082E080933C0602C010923C0610928106109280061FBF2196E3E00C9447F7A2E0B0E0ECEDF3E50C942AF71FB7F89410923B06CE0102960E943FD9882339F080913C068230C9F410923C0616C081E090E00A8002C0880F991F0A94E2F780959095209180063091810628233923309381062093F4
S28400A800800680E001C081E01FBF8111BAC081E080933C068A818A3029F500913D0610913E0620918D0230918E0241E050E00115110539F4CE0101960E943FD981114BC033C0CA01F801028002C0880F991F0A94E2F782239323892B09F065C0F80100811181E5CF90E08C30910520F7FC01E450FD4D0C94F1F6B0D214C0B7D212C02AD45F
S28400A88010C0C5D30EC05ED30CC00E94C4D609C00E9448D606C03DD104C00E9493D601C0A5D0811127C0C6CF2FB7F89480913B0681110FC03FB7F8948091020690910306816090930306809302063FBF81E080933B062FBF56C080914606811152C080913D0690913E06892B11F0F9DE4AC010923C0647C0813009F044C04FB7F89421E02F
S28400A90030E00A8002C0220F331F0A94E2F78091800690918106822B932B90938106809380064FBF2EC0B8018DE396E00E941D31F801428150E04930510508F07BCFFA01E85FFC4DC8010C94F1F697D393E002C040D394E09A83A5CF87D295E0FBCF0E94B0D696E0F7CF0E9425D692E0F3CFB5D098E0F0CF0E9473D699E0ECCF06D09BE07C
S28400A980E9CF2296E4E00C9446F7CF93DF93EC0118868B819C819C01215031092F333105C8F4805C9E4F9C838B838A81873031F0883081F4CE010E94FAB203C0CE010E94E0B2882339F0813061F4D0937F06C0937E0607C01886EE81FF81CE010896199580E080933F06DF91CF910895CF93DF93C0917E06D0917F068A81873031F08830DD
S28400AA0041F4CE010E94FAB207C0CE010E94E0B203C081E0888702C0811106C0EE81FF81CE010896199580E080933F06DF91CF910895AEE0B0E0EFE1F5E50C942AF70E9414B382E088871E861D861A86198681E08F83CE0101960E944AB68B859C850E948EF973D00E94D8D689D2F0D26ED30E946ED668D00E94ADD68EE48983809118148C
S28400AA808A83CE0101960E940FB78FE4898380911A148A83CE0101960E940FB789E58983809119148A83CE0101960E940FB780E589830FEF1FEF1B830A83CE0101960E940FB783E589831B830A83CE0101960E940FB72E96E4E00C9446F71F93CF93DF93EC010E944AB6182F882339F0813051F4D0937F06C0937E0605C0EC85FD85CE0196
S28400AB000896199510934006812FDF91CF911F9108951F93CF93DF93C0917E06D0917F06CE010E944AB6182F811105C0EC85FD85CE010896199510934006812FDF91CF911F910895109240060895A2E0B0E0EBEAF5E50C942CF76DEE78E180E092E00E94F533BE016F5F7F4F80E091E00E94173429813A818091ED189091EE189093F21879
S28400AB808093F1189093F4188093F3189093F6188093F518280F391F3093F8182093F7181092F0181092EF1869EF78E183E292E00E94F533BE016F5F7F4F8EE291E00E94173429813A818091F9189091FA189093FE188093FD18909300198093FF189093021980930119280F391F30930419209303191092FC181092FB182296E2E00C94F5
S28400AC0048F79CE0899FF0011124E351F74E86819781019608959CE0899FF0011124E351F74E4FB7F894A681B7818C9190E001968A0F9B1F978386831C9226813781808591852817390751F484819581918780878081918195838483978386834FBF08959CE0899FF0011124E351F74EA681B78182819381A817B90721F081E09C9191118D
S28400AC8001C080E0089581E0EBDF8823F9F08091800690918106816090938106809380062FB7F89480913B0681110FC03FB7F8948091020690910306816090930306809302063FBF81E080933B062FBF80E0C8DF8823F9F08091800690918106826090938106809380062FB7F89480913B0681110FC03FB7F89480910206909103068160F2
S28400AD0090930306809302063FBF81E080933B062FBF0895A6E3B0E0E0E9F6E50C942BF7182F6FDFFC01208130E0DC01A20FB31F12968C912F5F3F4F2E0F3F1FD9016C91813220F4811103C081E001C080E26295669566956370689FB00111248FEF869FA001879F500D1124CA0160E670E00E948CF6D9016C93BF01CE0101960E9427D767
S28400AD80882319F18A81982F977029F4807619F48B818C70B1F020917F02309180022E7F3093800220937F02CE010196BED420917F023091800221603093800220937F0204C080912E14898FE6CF812F24DF80E0E696E3E00C9447F781E042DF882311F081E098DF50DF80E0089580E039DF882311F080E08FDF47DF80E00895A9E0B0E081
S28400AE00E4E0F7E50C9429F78C018091430665E0813029F4C4D0F82E811121C01EC080E0BED0F82E81111BC0F8018381898388E03496DE01129601900D928A95E1F7CE0101960E940FB7F82E80914306823039F480914206B3D065E0A2D0109243068F2D2996E5E00C9445F7A9E0B0E0EAE3F7E50C942AF78C01DC0113968C91833511F1CA
S28400AE8048F4853028F4823088F4811124C01AC092EB09C08438B1F028F4893579F08F36D1F410C090E1980F9330A8F4813F41F4F801948120914106921339C091E00CC08935E1F39091091990934206963119F492E09093430690E020914306211111C0911113C0898388E0F8013496DE01129601900D928A95E1F7CE0101960E940FB7AE
S28400AF0002C0C8017BDF811108C0D8011C96ED91FC911D97199580E004C010937F0600937E06809344062996E4E00C9446F7909341069091091990934206963109F0BECF91E0C7CFA1E0B0E0E8EAF7E50C942AF700917E0610917F06C80150DF811108C0D8011C96ED91FC911D97898319958981809344062196E4E00C9446F7109244064D
S28400AF8010924306109241060895882331F0813011F083E0089586E1089589E108956093D315F3DF0C9414B8882331F0813011F088E0089586E1089589E108958850823130F4E82FF0E0E558FC4F8081089588E008951F93CF93DF93EC01109109198B81E3DF181729F064E08B81D9DF811105C0EC81FD81199580E004C0D0937F06C09347
S28400B0007E0680934506DF91CF911F910895A1E0B0E0EDE0F8E50C942AF700917E0610917F0664E0D80113968C91B9DF811108C0D8011496ED91FC911597898319958981809345062196E4E00C9446F7109245060895CF93DF93EC0163E080E0A0DF811109C082E080934606CE0103960E9469D80E9472B8DF91CF910895CF93DF93EC01BE
S28400B08089AD83DF80930719D0937F06C0937E06809119148093D4150E948BF99093D6158093D51580910919893151F482E080934606CE0103960E9469D80E9472B805C081E080934606CE01C4DF80934706DF91CF910895A2E0B0E0E0E7F8E50C942AF700917E0610917F0680914606813021F4C801AFDF811123C00E94ABB20E9482B212
S28400B1001A8219820E943EB6D801DC968C93DC97DA96ED91FC91DB97C801CC9619958091191490E02091D415821B91099A838983BE016F5F7F4F8DE30E940D3080E0809347062296E4E00C9446F710924706109246060895A9E0B0E0E0EBF8E50C942CF783E08983CE01019692D98A81833021F40E943EB6813029F08091D41581508093A0
S28400B180D4150E9428E263E080E009DF81110DC080917E0690917F0622E02093460603960E9469D80E9472B80EC081E080934706809346068091800690918106886090938106809380062996E2E00C9448F72FB7F8948091020690910306846090930306809302062FBF0895BC0186E898E10E944D318091751881110CC02FB7F8948091E1
S28400B200020690910306846090930306809302062FBF0895CF93DF93DC0112964C9150E0FA013197E031F10508F053C0EF5EFC4D0C94F1F6DC011C96ED91FC911D970E963DC0DC011B96ED91FC911C970D9636C0DC011796ED91FC91189709962FC0DC015196ED91FC915297439628C0DC015396ED91FC9154974596199543C0DC01199696
S28400B280ED91FC911A970B9619C0DC011E96ED91FC911F97409612C0FC01C08DC470D0E0018CF28DE02D4B961995CD2B51F511C0DC011496ED91FC9115970696199509C08091E6188E7F03C08091E6188D7F8093E618109275182091E6188091861890918718892B11F4222361F02FB7F8948091020690910306846090930306809302065C
S28400B3002FBFDF91CF910895CF93DF9380917518882319F0833009F06AC08091E618882389F080FF09C08FE0809375180E940D6861EF0E9465665BC080E1809375180E94E5DC55C080918F02882309F450C0C0918618D0918718209709F449C086E898E10E9411318A8180937518D0937818C09377188A8190E0FC013197EE30F10518F5CD
S28400B380EF5DFC4D0C94F1F60E9454641AC00E942E6417C05CD415C0C7D713C0AAD411C00E9445DB0EC00E948CDB0BC00E94236608C0EED006C052D304C00E94F1DD01C01ED4811114C0109275188091861890918718892B61F02FB7F8948091020690910306846090930306809302062FBFDF91CF91089527E0FC012283F6CE28E0FC018B
S28400B4002283F2CE2BE0FC012283EECE22E0FC012283EACECF93DF93EC018B81882331F183E08A838093751810928718109286181092E61860E972E085E20E948C30BE0186E898E10E944D318FD989E798E10E943DE42FB7F8948091020690910306846090930306809302062FBF04C084E08A83CE01BADEDF91CF9108952AE0FC01228315
S28400B480B3CE25E0FC012283AFCE21E0FC012283ABCE26E0FC012283A7CE2CE0FC012283A3CE2DE0FC0122839FCE20917518233011F00C94E0A5089520917518233011F00C9485AE089520917518233011F00C9402A2089520917518233011F00C94D5B1089520917518233011F00C94CDA9089520917518233011F00C94ADB1089580918D
S28400B500E61881608093E61880917518811101C05ECE08958091E61882608093E61880917518811101C053CE089520917518211104C021E1209375181DC308958091E618811105C00E94786991E0982701C091E0892F08951F93CF93DF93EB011881EEDF91E0982791239883DF91CF911F910895CF93DF93C0917718D0917818FC01808141
S28400B5800E9454DD8CA3CE0145DEDF91CF9108951F93CF93DF93C0917718D091781880911B1490911C14998B888B13E01A8B63D8DE01539628E0FC0101900D922A95E1F71B8F8B818C8F8C818D8F8D818E8F8E818F8F8F8188A3888589A389858AA38A858BA38D85811105C01CA2CE0113DE80E077C08BE0809395188091161491E0980F25
S28400B6009093161480939818809196188078209197182C6083628F77809396182C7C209397188FEF9FEF90939A1880939918EB817C816D815E814F81388599858A85E0939B1870939C1860939D1850939E1840939F183093A0189093A1188093A218206C2093971880911B1490911C149093A4188093A31800D828E0FC01A5EAB8E1019039
S28400B6800D922A95E1F780911B1490911C149093AE188093AD1880912014909121149093B0188093AF188B859C859093B3188093B21880912E148093B11888EB9AE59093CD188093CC1880911E14882311F081E001C082E08093CB1882E998E12ED881E0DF91CF911F910895A8E0B0E0EAE7FBE50C942CF7FC018281807C81F08089898362
